S01900006D6F7272657338335F4752424C2D4A4F472E7372656375
S11300000C94E4040C9401050C9401050C94010572
S11300100C9401050C94702F0C94B7390C940105C1
S11300200C9401050C9401050C9401050C94010534
S11300300C9401050C949A1B0C9401050C94010575
S11300400C9401050C9401050C94B01D0C9401054D
S11300500C9476180C9438180C9401050C94010532
S11300600C9401050C9401050C9401050C940105F4
S1130070E20DE20DE20DE20D7D0D34173417341755
S113008034173417740D34173417341734173417DE
S11300903417430E430E430E780E780E341734177C
S11300A03417341734173417740D3417740D341788
S11300B0341734173417341734173417E20D341740
S11300C0A80E34173417860E341734173417341720
S11300D03417860E3417341734177D0DA10EA10E74
S11300E0A10EA10EA10EA10E341734173417341724
S11300F034173417341734173417341734173417A4
S11301003417341734173417341734173417341793
S1130110E80D3417341734173417341734173417D9
S1130120341734175C0E5C0E740D6A0E6A0ED30E0F
S1130130D30ED30EE50EE50EE50E4C174C17FC0E50
S1130140FC0E4C174C174C174C174C174C174C17EC
S11301504C174C174C174C174C174C174C174C1783
S11301604C174C174C174C174C17D30E2F0F501716
S11301705017390F460F530F600F5017640F501765
S1130180720F50177C0F860FB60F50175017501769
S1130190900F9D0FAA0F00161516341615163A1651
S11301A0511640164A16661670167F16A416C816FF
S11301B0D916EB16FC16AC27B227B527BA27BF27EA
S11301C0CD27DB27782878287828E927EC27F52716
S11301D0FE277828782878287828782878280C2802
S11301E01C282C283A283D2846284F2856287828A9
S11301F078285F2868287B34803485348A348F34A7
S1130200943499349E34A334A834AD34C634B2340F
S1130210C634C634C634C634C634C634BC34B73423
S1130220C134AF37B437B937BE37C337C837CD3722
S1130230D237D737084AD73B3BCE016E84BCBFFDCB
S1130240C12F3D6C74319ABD56833DDA3D00C77FA2
S113025011BED9E4BB4C3E916BAAAABE000000803B
S11302603F05A84CCDB2D44EB93836A9020C50B9CA
S1130270918688083CA6AAAA2ABE000000803F00F6
S11302804A6F67460D0A004A6F670069646C65200F
S113029066726F6D206A6F67000D0A0020003E0DC4
S11302A00A002C52583A002C4275663A002C002C55
S11302B057506F733A002C002C4D506F733A003C2A
S11302C04A6F67003C446F6F72003C436865636B20
S11302D0003C416C61726D003C486F6D65003C48A8
S11302E06F6C64003C52756E003C49646C65005D43
S11302F00D0A005B302E39682F4752424C2D4A4F6D
S1130300472E32303135303231303A000D0A003D5B
S113031000244E005D0D0A00204600205400204DAC
S11303203800204D3900204D3500204D3400204D3B
S11303303300204D3200204D3100204D3000204745
S113034039340020473933002047393100204739F8
S11303503000204732300020473231002047313905
S11303600020473138002047313700204700473804
S113037030004733382E35004733382E34004733A6
S1130380382E33004733382E3200473300473200CB
S11303904731004730005B005D0D0A005B544C4F51
S11303A03A005D0D0A002C005B4739323A005D0DBE
S11303B00A002C003A003330003238005B47005DFD
S11303C00D0A003A002C005B5052423A00290D0AF3
S11303D000206D61782074726176656C2C206D6DDF
S11303E00020616363656C2C206D6D2F7365635E03
S11303F03200206D617820726174652C206D6D2F40
S11304006D696E002C20737465702F6D6D007A0019
S1130410790078002028003D00240020285A207A02
S113042065726F2067617567652C206D6D290D0AF3
S11304300020285A207A65726F2070756C6C2D6FBD
S113044066662C206D6D290D0A2433313D00202869
S1130450686F6D696E672070756C6C2D6F66662CA5
S1130460206D6D290D0A2433303D002028686F6DFE
S1130470696E67206465626F756E63652C206D73A9
S11304806563290D0A2432373D002028686F6D69A1
S11304906E67207365656B2C206D6D2F6D696E29F9
S11304A00D0A2432363D002028686F6D696E67207E
S11304B0666565642C206D6D2F6D696E290D0A24A7
S11304C032353D00290D0A2432343D002028686F5E
S11304D06D696E672064697220696E766572742036
S11304E06D61736B3A002028686F6D696E672063D5
S11304F079636C652C20626F6F6C290D0A2432338A
S11305003D00202868617264206C696D6974732CE5
S113051020626F6F6C290D0A2432323D002028734B
S11305206F6674206C696D6974732C20626F6F6CD4
S1130530290D0A2432313D0020287265706F7274CF
S113054020696E636865732C20626F6F6C290D0AD5
S11305502432303D00202861726320746F6C657210
S1130560616E63652C206D6D290D0A2431333D00C5
S113057020286A756E6374696F6E2064657669619C
S113058074696F6E2C206D6D290D0A2431323D0083
S1130590290D0A2431313D00202873746174757368
S11305A0207265706F7274206D61736B3A0020283D
S11305B070726F62652070696E20696E7665727400
S11305C02C20626F6F6C290D0A2431303D002028E5
S11305D06C696D69742070696E7320696E766572DA
S11305E0742C20626F6F6C290D0A24363D0020287C
S11305F07374657020656E61626C6520696E7665E2
S113060072742C20626F6F6C290D0A24353D002909
S11306100D0A24343D00202864697220706F7274BE
S113062020696E76657274206D61736B3A00290DD2
S11306300A24333D0020287374657020706F72742F
S113064020696E76657274206D61736B3A002028A0
S1130650737465702069646C652064656C61792CC1
S1130660206D736563290D0A24323D0020287374BC
S113067065702070756C73652C2075736563290D26
S11306800A24313D0024303D002424202876696565
S113069077204772626C2073657474696E6773297E
S11306A00D0A24232028766965772023207061723F
S11306B0616D6574657273290D0A24472028766973
S11306C06577207061727365722073746174652933
S11306D00D0A2449202876696577206275696C645F
S11306E020696E666F290D0A244E20287669657785
S11306F0207374617274757020626C6F636B7329FC
S11307000D0A24783D76616C7565202873617665E1
S1130710204772626C2073657474696E67290D0AD0
S1130720244E783D6C696E6520287361766520736C
S113073074617274757020626C6F636B290D0A2486
S1130740432028636865636B2067636F6465206D6D
S11307506F6465290D0A245820286B696C6C20612C
S11307606C61726D206C6F636B290D0A244820281C
S113077072756E20686F6D696E67206379636C654E
S1130780290D0A7E20286379636C65207374617275
S113079074290D0A2120286665656420686F6C64DD
S11307A0290D0A3F202863757272656E7420737474
S11307B061747573290D0A6374726C2D7820287224
S11307C065736574204772626C290D0A000D0A472F
S11307D072626C20302E39682F4752424C2D4A4F9A
S11307E047205B27242720666F722068656C705D44
S11307F00D0A005D0D0A00436865636B20446F6F4A
S1130800720044697361626C656400456E61626C78
S113081065640043617574696F6E3A20556E6C6F40
S1130820636B656400272448277C27245827207499
S11308306F20756E6C6F636B005265736574207402
S11308406F20636F6E74696E7565005B000D0A003E
S113085050726F6265206661696C0041626F7274E8
S113086020647572696E67206379636C6500536FE9
S11308706674206C696D69740048617264206C69E7
S11308806D697400414C41524D3A20000D0A0049F3
S11308906E76616C69642067636F64652049443ACD
S11308A000556E646566696E6564206665656420DE
S11308B07261746500556E737570706F72746564DF
S11308C020636F6D6D616E64004D6F64616C2067B1
S11308D0726F75702076696F6C6174696F6E004A0F
S11308E06F6767696E67206F6E676F696E673B201D
S11308F049676E6F72696E672047436F6465004C89
S1130900696E65206F766572666C6F7700486F6DEF
S1130910696E67206E6F7420656E61626C65640039
S1130920416C61726D206C6F636B004E6F74206953
S1130930646C6500454550524F4D207265616420DA
S11309406661696C2E205573696E67206465666103
S1130950756C74730056616C7565203C203320758A
S11309607365630053657474696E672064697361A9
S1130970626C65640056616C7565203C20300049EA
S11309806E76616C69642073746174656D656E74F0
S113099000426164206E756D62657220666F726DCF
S11309A0617400457870656374656420636F6D6D70
S11309B0616E64206C6574746572006572726F7226
S11309C03A20006F6B0D0A0011241FBECFEFD0E157
S11309D0DEBFCDBF11E0A0E0B1E0E8E3F0E802C083
S11309E005900D92A030B107D9F729E0A0E0B1E05D
S11309F001C01D92A535B207E1F70E9422080C94AC
S1130A001A400C94000087B1806387B988B1806371
S1130A1088B981B1807881B982B18F6782B93B98F6
S1130A20439A83E880937A0087E280937C00089558
S1130A30CF93C0B10E943B1A0E94E418C095CF77AF
S1130A40C1F7CF910895CF93C6B10E943B1A0E947B
S1130A50E418C3FFF9CFCF9108952F923F924F929C
S1130A605F926F927F928F929F92AF92BF92CF923A
S1130A70DF92EF92FF920F931F93CF93DF93CDB743
S1130A80DEB769970FB6F894DEBF0FBECDBF809175
S1130A906807843049F018F4813041F009C0883087
S1130AA019F0803219F004C0459AB3C2459801C0C8
S1130AB0459A80906807898E339915C0479B07C073
S1130AC040E050E0BA0180E00E94C51706C040E053
S1130AD050E0BA0181E00E94C5170E94230584E119
S1130AE090E00E94D82E80B18095282F2F772A8BF2
S1130AF0222309F48EC286FFA1C00E941805898CA6
S1130B0080926807309913C080913C0984FF81C2A8
S1130B10282D223008F07DC20E94170C80916707AF
S1130B20811177C2109268070E946C1B72C20E94E6
S1130B30C72D0E94E70C0EE917E00F2EFAEAEF2EFC
S1130B40F7E0FF2EF02DF80161917191819191915F
S1130B508F0120853185428553850E94D33BF8015E
S1130B60648B758B868B978B0E151F0561F78091AF
S1130B709E0790919F07A091A007B091A107898338
S1130B809A83AB83BC838091A2079091A307A09121
S1130B90A407B091A5078D839E83AF83B88706EA27
S1130BA017E020914C0930914D0940914E09509124
S1130BB04F09F80160817181828193810E94D43B45
S1130BC069877A878B879C874091420950914309B2
S1130BD0609144097091450920E0CE0101960E947C
S1130BE05F080E94111B20915009309151094091D6
S1130BF0520950915309F801608171818281938176
S1130C000E94D33BF8016083718382839383209194
S1130C10B2073091B3074091B4075091B5070E94D1
S1130C20D33B6093BE077093BF078093C007909334
S1130C30C1070E94C72D0E94E70CEBC1EAE7F0E070
S1130C4093E99083908393EC908390E89093680762
S1130C5080FD04C010E0198A90E004C010ECF1E0BB
S1130C60F98B90E882FF09C010E3192720E292274C
S1130C7021E0288F31E0398B01C0188E84FF06C033
S1130C801CE0192728E09227E2E0E88F81FF02C0E8
S1130C9010E4192783FF04C010E11927F1E0F88F4D
S1130CA085FF06C014E0192722E0288F31E0398B34
S1130CB02091790030E0A7E2BFE10E9400402FEFCD
S1130CC030E040E050E00E94D83F49015A0189E1F8
S1130CD0880E911CA11CB11CEAE7F0E080818823F6
S1130CE0E9F383E880937A000E942D1B8BB18B7A01
S1130CF08BB96AE070E080E090E00E94E42E80917D
S1130D003C0980FF20C0988DE92FF0E0EE0FFF1F13
S1130D10EE0FFF1FE150F74F2BE832E441E25DE3B1
S1130D2060817181828193810E94EB3E9B01AC01C1
S1130D3060E070E080E89FE30E94B43C6B8B7C8BA6
S1130D408D8B9E8B17C0288DE22FF0E0EE0FFF1FD6
S1130D50EE0FFF1FE150F74F208131814281538113
S1130D6060E070E080E89FE30E94B43C6B8B7C8B76
S1130D708D8B9E8B988D892F90E09E878D87FC01AB
S1130D80EE0FFF1FEE0FFF1FE959F84F65817681C3
S1130D90878190850E944F3D2B893C894D895E89CE
S1130DA00E94B43C2B013C010F2EF9E1CF2ED12C33
S1130DB0E12CF12CF02D0F2EFAE72F2E312CF02DF3
S1130DC0012F04758D859E85880F991F880F991FA3
S1130DD0FC01E459F84FFE87ED87F88DF85AF88F37
S1130DE0A50194010F8B0D851E8583E9F101808394
S1130DF083B1ECE3F9E0908196FD02C09EE089277F
S1130E008E7039F0BB24B3948988811003C0B12C4F
S1130E1001C0B12C80B180958F779A8898121FC039
S1130E20DA01C9010597A109B109C816D906EA066C
S1130E30FB0628F485E0C80ED11CE11CF11CDA0184
S1130E40C9010596A11DB11D8C159D05AE05BF05F3
S1130E50F8F495E0C91AD108E108F10819C0E3E3F0
S1130E60CE16D104E104F104D0F0A3E6B0E0A7016A
S1130E7096010E940F4024E630E040E050E00E94DA
S1130E80D83F69017A01F5E0CF1AD108E108F108E9
S1130E90B11005C0EAE6F7E0808184FF0EC00E942D
S1130EA06C1B8BE892E00E94C732898C80926807A1
S1130EB00E94C72D0E94E70CACC083ECF101808333
S1130EC08BB18B7A8F8888298BB9EFE2F9E0608146
S1130ED0669570E080E090E00E94E42E60E472E4A5
S1130EE08FE090E0A70196010E94D83FEFE2F9E07D
S1130EF0808149015A01881A9108A108B1088D8698
S1130F009E86AF86B88A24E6821A9108A108B108A1
S1130F108BB18B7A8BB939893323B9F0F80180818D
S1130F209181A281B3810197A109B1098083918341
S1130F30A283B3832B893C894D895E89C301B201A5
S1130F400E94D33B2B013C0116C0F80180819181A2
S1130F50A281B3810196A11DB11D80839183A283D7
S1130F60B3832B893C894D895E89C301B2010E94F8
S1130F70D43B2B013C01EAE6F7E0808180FF2DC0E1
S1130F80FBEF8F169104A104B10400F187E892E00D
S1130F900E94C732888D0E9419188CE20E94191889
S1130FA043E0C301B2010E9449338DE00E94191845
S1130FB08AE00E9419188D849E84AF84B8882EE537
S1130FC0821A21E0920AA108B10804C080E892E0E4
S1130FD00E94C732EAE6F7E01082C501B4010E941C
S1130FE0E42EF10180818823E1F383E8808320915A
S1130FF0790030E0A7E2BFE10E9400402FEF30E02B
S113100040E050E00E94D83F275E3F4F4F4F5F4F74
S1131010ECCE69960FB6F894DEBF0FBECDBFDF915C
S1131020CF911F910F91FF90EF90DF90CF90BF90E1
S1131030AF909F908F907F906F905F904F903F9074
S11310402F9008950E9403180E94D1280E943C1EEC
S11310500E94A639E7E6F7E080E2DF011D928A9557
S1131060E9F781E0808378946F010F2EFAE6EF2E82
S1131070F7E0FF2EF02D0BE617E0C9E6D7E00E945B
S1131080DF180E94D50C0E94BA170E94E0170E9434
S1131090582F0E942E340E94552A0E94101E0E942E
S11310A003050E94C72D0E94E70CF6011082D701A8
S11310B01C92F801108218820E94E31AE0CFBF92BA
S11310C0CF92DF92EF92FF920F931F93CF93DF9310
S11310D08C016A017B01B22E80913C0985FF03C01B
S11310E0C8010E945732809168078230A1F0C7E698
S11310F0D7E00E94E418888181110DC00E94A52ABE
S1131100882319F00E94DA1AF4CF2B2DB701A60117
S1131110C8010E94AD2ADF91CF911F910F91FF90DA
S1131120EF90DF90CF90BF9008952F923F924F920F
S11311305F926F927F928F929F92AF92BF92CF9263
S1131140DF92EF92FF920F931F93CF93DF93CDB76C
S1131150DEB7E9970FB6F894DEBF0FBECDBF9A8B0A
S1131160898B79AF68AF3A0109871A872B873C8747
S1131170AB8A482C512C1201220C331C220C331C38
S1131180820D931D9D8B8C8B9A01220D331D3DABDB
S11311902CABD9018D909D90AD90BC90FC01208129
S11311A0318142815381C501B4010E94D43B6E8BCD
S11311B07F8B888F998F2F960FAD2F9710E0000F9C
S11311C0111F000F111F29893A89200F311F3B8FEE
S11311D02A8FA301400F511F5FAB4EABDA018D91F3
S11311E09D910D90BC91A02D89839A83AB83BC8380
S11311F0F9012081318142815381BC01CD010E94DA
S1131200D43B6C8F7D8F8E8F9F8F2401350177FAAD
S1131210709477F8709489809A80AB80BC80B7FA18
S1131220B094B7F8B094E8ADF9ADE20DF31D2E8992
S11312303F89488D598D60817181828193810E949B
S1131240D33B69837A838B839C83E8ADF9ADE00F4C
S1131250F11F2C8D3D8D4E8D5F8D6081718182815A
S113126093810E94D33B6D837E838F8398872981EA
S11312703A814B815C81C301B2010E94EB3E6D87D0
S11312807E878F87988B2D813E814F815885C5013C
S1131290B4010E94EB3E9B01AC016D857E858F8578
S11312A098890E94D43B6D877E878F87988B2D8188
S11312B03E814F815885C301B2010E94EB3E6D838C
S11312C07E838F83988729813A814B815C81C50114
S11312D0B4010E94EB3E9B01AC016D817E818F8144
S11312E098850E94D33B2D853E854F8558890E9461
S11312F0473C69837A838B839C8361968FAD619726
S11313008823D1F020E030E0A90169817A818B81C2
S11313109C810E94B03E882344F12BED3FE049ECD0
S113132050E469817A818B819C810E94D33B6983DB
S11313307A838B839C8319C020E030E0A901698102
S11313407A818B819C810E94AD3C181674F02BED40
S11313503FE049EC50E469817A818B819C810E9451
S1131360D43B69837A838B839C83209138093091A1
S1131370390940913A0950913B092D833E834F83AB
S1131380588729853A854B855C85CA01B9010E9435
S1131390D43B2D813E814F8158850E94D33B9B01D4
S11313A0AC016D817E818F8198850E94EB3E0E9405
S11313B0783F6D837E838F83988720E030E040E020
S11313C05FE369817A818B819C810E94EB3E298550
S11313D03A854B855C850E94EB3E9F772D813E814B
S11313E04F8158850E94B43C0E948A3D0E94213D51
S11313F069877A878B879C8749855A855E874D875D
S1131400452B09F48EC15B89552379F0A985BA85EA
S1131410BD0180E090E00E944D3D9B01AC01C701FD
S1131420B6010E94EB3E6B017C01E985FA85BF01A0
S113143080E090E00E944D3D69877A878B879C8786
S11314409B01AC0169817A818B819C810E94B43CAF
S113145068AB79AB8AAB9BAB60968FAD609790E03D
S1131460880F991F880F991F29893A89280F391FD6
S11314703A832983E8ADF9ADE80FF91FD9012D911D
S11314803D914D915C9160817181828193810E9433
S1131490D33B29853A854B855C850E94B43C6CA37B
S11314A07DA38EA39FA328A939A94AA95BA9CA0130
S11314B0B9010E94EB3E9B01AC0160E070E080E06A
S11314C090E40E94D33B69877A878B879C872BEAB9
S11314D03AEA4AE25EE368A979A98AA99BA90E942B
S11314E0EB3E6D837E838F83988720E030E040E875
S11314F050E469857A858B859C850E94D43B9B0149
S1131500AC016D817E818F8198850E94EB3E68A736
S113151079A78AA79BA720E030E040E05FE36985D4
S11315207A858B859C850E94EB3E6CA77DA78EA750
S11315309FA7ED85FE85329708F4F3C010E02224BE
S11315402394312CC8A2D9A2EAA2FBA21C30D0F564
S11315502CA53DA54EA55FA5C501B4010E94EB3E97
S11315606B017C0128A539A54AA55BA5C301B2017D
S11315700E94EB3EA70196010E94D43BD62EE72E93
S1131580F82E092F2CA53DA54EA55FA5C301B201D8
S11315900E94EB3E2B013C0128A539A54AA55BA579
S11315A0C501B4010E94EB3E9B01AC01C301B20131
S11315B00E94D33B2B013C011F5F8D2C9E2CAF2C32
S11315C0B02E64C0B10180E090E00E944D3D28A996
S11315D039A94AA95BA90E94EB3E4B015C010E9418
S11315E0B13C6B017C01C501B4010E946E3F4B010B
S11315F05C01ECA9FDA980819181A281B3819C0148
S1131600AD01505829873A874B875C87AEA9BFA99B
S11316108D919D910D90BC91A02D8D839E83AF8360
S1131620B887A701960169857A858B859C850E9478
S1131630EB3E2B013C01A50194016D817E818F81DC
S113164098850E94EB3E9B01AC01C301B2010E944C
S1131650D43B2B013C0129853A854B855C85C5012A
S1131660B4010E94EB3E4B015C012D813E814F8110
S11316705885C701B6010E94EB3E9B01AC01C50130
S1131680B4010E94D33B4B015C0110E0A301920121
S11316906E897F89888D998D0E94D43BEC89FD8960
S11316A06083718382839383A50194016C8D7D8D06
S11316B08E8D9F8D0E94D43BAA8DBB8D6D937D939F
S11316C08D939C9313972CA13DA14EA15FA1E98119
S11316D0FA8160817181828193810E94D43BA981C6
S11316E0BA816D937D938D939C9313972B8948A115
S11316F059A16AA17BA189899A890E945F08E7E6BA
S1131700F7E08081811114C0FFEF2F1A3F0A2D8565
S11317103E852216330609F019CFC8A0D9A0EAA045
S1131720FBA02B89B701A60188AD99AD0E945F0883
S1131730E9960FB6F894DEBF0FBECDBFDF91CF910F
S11317401F910F91FF90EF90DF90CF90BF90AF90DB
S11317509F908F907F906F905F904F903F902F90CD
S113176008958F929F92AF92BF92CF92DF92EF92A1
S1131770FF92CF93DF934B015C0180916807823025
S113178009F44AC020E030E040EA51E4C501B40164
S11317900E94EB3E0E948A3D0E94213D6B017C0128
S11317A0EB010E94111B20E030E04AE754E4C5013C
S11317B0B4010E94EB3E4B015C0182E38C9DB001BD
S11317C08D9D700D112480E090E00E944D3D9B01A1
S11317D0AC01C501B4010E94D33B0E948A3D0E9422
S11317E0213DCB010E94D82ECD2BB1F0C7E6D7E026
S11317F00E94E418888181110FC02FEF8FEC92E0D2
S1131800215080409040E1F700C0000021E0C21A5E
S1131810D108C114D10461F7DF91CF91FF90EF900B
S1131820DF90CF90BF90AF909F908F9008950E94CB
S11318304D2F84E00E94A42F83E00E94A42F0E94D5
S1131840E41880916707811104C00E94E70C0E948C
S1131850582F08958F929F92AF92BF92CF92DF92AA
S1131860EF920F931F93CF93DF936C014A015B01B7
S1131870C22F90916807923009F468C00E94111B2E
S113188010928607802F0E9431340E9443348823AB
S113189051F08FB7F894EBE6F7E090819061908374
S11318A08FBF0E94E4188091670781114FC02C2FCD
S11318B0B501A401C6010E945F0881E08093790705
S11318C08FB7F894EAE6F7E09081926090838FBF37
S11318D0C7E6D7E008E617E00E94E4188881811182
S11318E035C0F80180818111F7CF8091790781306B
S11318F0A9F4EE2051F08CE0ECE6F7E0AAE7B7E0BB
S113190001900D928A95E1F70CC08FB7F894EBE63D
S1131910F7E09081906190838FBF03C081E0809352
S11319208607109279070E94E41880916707811155
S11319300DC00E94101E0E94552A0E94C72D6CE6FD
S113194077E0C6010E94B93B0E94E136DF91CF9156
S11319501F910F91EF90DF90CF90BF90AF909F9029
S11319608F90089580916A0784FD1EC08FB7F89404
S1131970EAE6F7E09081906190838FBF0E94B817E8
S11319800E94DE17809168078C7021F480916907AA
S1131990813051F48FB7F894EBE6F7E090819860CA
S11319A090838FBF0E946C1B08958FE3E7E8F7E0F4
S11319B0DF011D928A95E9F76AEA77E080E00E94E8
S11319C03B27811103C087E00E94623408956CE6CE
S11319D077E08EE997E00E94B93B08952F923F92F9
S11319E04F925F926F927F928F929F92AF92BF922B
S11319F0CF92DF92EF92FF920F931F93CF93DF93D7
S1131A00CDB7DEB7AB970FB6F894DEBF0FBECDBF30
S1131A108C0189E3E6ECF7E0DF011D928A95E9F792
S1131A208AE0E7E8F7E0A7ECB7E001900D928A9529
S1131A30E1F7198E212C312CE12CF12C1BA21F8EE5
S1131A401E8ECC24C394D12C0F2EF1E68F2EF3E0FE
S1131A509F2EF02DADC29FEB9B0D9A3110F00C948C
S1131A6030178F5F898FAE01465E5F4FBE01675EA0
S1131A707F4FC8010E940C2E882311F40C94321756
S1131A804A8C5B8C6C8C7D8CC301B2010E94B93F83
S1131A900E94213DA62E70E080E090E00E944F3D20
S1131AA09B01AC01C301B2010E94D33B20E030E0B2
S1131AB048EC52E40E94EB3E0E944E3F0E94213DBE
S1131AC0B7E4BB1629F0EDE4BE1609F45CC1B9C154
S1131AD08A2D90E08F35910510F00C943417FC0199
S1131AE0E85CFF4F0C94FA3F6115710531F4FE8DEB
S1131AF0F1110C94361721E02E8F3CE1A31601F16D
S1131B003A1538F084E0A81679F09AE0A91691F015
S1131B1021C1A5E3AA16E1F1BCE5AB1609F43EC068
S1131B20EEE1AE1217C120C081E0A6ECB7E08C93C1
S1131B3080E015C182E0E6ECF7E0808380E00FC12D
S1131B406115710529F06A30710541F00C9438175C
S1131B5083E0A6ECB7E08C9380E005C184E0E6EC7A
S1131B60F7E0808380E0FFC06115710529F06A30D9
S1131B70710541F00C943A1785E0A6ECB7E08C931C
S1131B8080E0F1C086E0E6ECF7E0808380E0EBC023
S1131B9087E0A6ECB7E08C9380E0E1C061157105A5
S1131BA029F06A30710541F00C943C1788E0E6ECAA
S1131BB0F7E0808380E0D7C089E0A6ECB7E08C939F
S1131BC080E0D1C0BE8DB1110C943E17E2E0EE8FDF
S1131BD0F2E0AF16E9F0FA1530F0AA2079F021E02E
S1131BE0A21689F0B9C036E2A316F1F080E5A81672
S1131BF009F443C093E0A912AFC010C0A7ECB7E04A
S1131C001C9281E0ACC081E0E7ECF7E08083A7C0E0
S1131C1082E0A7ECB7E08C9381E0A1C083E0E7EC1D
S1131C20F7E0808381E09BC06E317105A1F028F458
S1131C306431710551F00C9440176832710589F0D4
S1131C4062337105A1F00C94401784E0A7ECB7E06F
S1131C508C9381E088C085E0E7ECF7E0808381E045
S1131C6082C086E0A7ECB7E08C9381E07CC087E07B
S1131C70E7ECF7E0808381E076C088E0A7ECB7E08A
S1131C808C9381E06CC0B2E1AB1659F0E3E1AE167F
S1131C9071F0F1E1AF1262C0ABECB7E01C9282E0EC
S1131CA05EC081E0EBECF7E0808382E058C082E024
S1131CB0ABECB7E08C9353C0BAE5AB1205C0EAECC9
S1131CC0F7E0108283E04BC081E0AAECB7E08C938C
S1131CD083E045C0BDE5AB1206C081E0E8ECF7E067
S1131CE0808384E03CC0A8ECB7E01C9284E037C059
S1131CF0B4E1AB1206C081E0E9ECF7E0808385E053
S1131D002EC0A9ECB7E01C9285E029C0BE8DB111AC
S1131D100C944217E1E3AE1207C0ACECB7E01C929E
S1131D2087E0B3E0BE8F1FC06A30710511F00C94D8
S1131D30441781E0ECECF7E0808387E0F3E0FE8F6A
S1131D4012C08AEC8A0DADECB7E08C9388E007C032
S1131D5086E005C080E003C081E001C082E0672B1B
S1131D6011F00C944617F60102C0EE0FFF1F8A957E
S1131D70E2F79F012E213F21232B11F00C944817E9
S1131D80EE2AFF2A15C1672B11F00C944A178A2DED
S1131D9090E08F31910510F00C944C17FC01E9563A
S1131DA0FF4F0C94FA3FF2E0AF1651F02EE1A21669
S1131DB039F0A11031C081E08093CE0789E031C0B1
S1131DC082E08093CE0789E02CC034E0A31659F05A
S1131DD085E0A81669F093E0A91220C081E0809301
S1131DE0D0078AE01EC082E08093D0078AE019C041
S1131DF01092D0078AE015C0A8E0AA1621F0B9E035
S1131E00AB1631F00DC082E08093CF078BE009C0A0
S1131E101092CF078BE005C089E003C08AE001C0BF
S1131E208BE0F60102C0EE0FFF1F8A95E2F79F01D7
S1131E302E213F21232B11F00C944E17EE2AFF2A5A
S1131E40B7C08B2D90E0FC01E654F109E531F105B2
S1131E5010F00C945017EA54FF4F0C94FA3F409240
S1131E60D1075092D2076092D3077092D40720E032
S1131E707EC04092D5075092D6076092D7077092E1
S1131E80D807FBA1F160FBA321E071C04092D90700
S1131E905092DA076092DB077092DC072BA1226074
S1131EA02BA322E064C04092DD075092DE076092CB
S1131EB0DF077092E0073BA134603BA323E057C0E7
S1131EC0A092E10724E053C0C301B2010E941C3D6B
S1131ED06093E2077093E3078093E4079093E50728
S1131EE025E045C04092E6075092E7076092E80774
S1131EF07092E90726E03BC04092EA075092EB0754
S1131F006092EC077092ED0727E031C04092EE0733
S1131F105092EF076092F0077092F10728E027C013
S1131F204092F3075092F4076092F5077092F60717
S1131F308F8D81608F8F2AE01AC04092F7075092EC
S1131F40F8076092F9077092FA079F8D92609F8F4D
S1131F502BE00DC0ABEFB7E04D925D926D927C9299
S1131F601397BF8DB460BF8F2CE001C029E05601E8
S1131F70022E02C0AA0CBB1C0A94E2F7C5018221FE
S1131F809321892B09F08EC7C40102C095958795CA
S1131F902A95E2F780FF0AC020E030E0A901C301DE
S1131FA0B2010E94AD3C88230CF47EC72A283B284A
S1131FB0898DF801E80FF11DB080B1104CCD81017D
S1131FC08E8DEF8DEE2321F0811102C0F2E0FE8FA1
S1131FD005FF0EC08091E2079091E307A091E4070A
S1131FE0B091E50780389649A849B1050CF05EC761
S1131FF08091C807813031F43E8D3230A1F500FF65
S113200057C731C08091880781112DC000FF1BC0C4
S11320108091C907813039F50F2EF1EDCF2EF7E00D
S1132020DF2EF02D23E333E34BEC51E4D6016D9125
S11320307D918D919C910E94EB3EF60160837183AA
S11320408283938310C08091950790919607A09105
S11320509707B09198078093D1079093D207A093E4
S1132060D307B093D40710FD10C0809191079091CD
S11320709207A0919307B09194078093EE079093F1
S1132080EF07A093F007B093F1078091C607813062
S113209029F406FF0FC71801E89426F88091CB07AE
S11320A0882319F0813069F006C0F2E0FEA321E034
S11320B02DA31CA20BC01EA232E03DA381E08CA381
S11320C005C091E09EA31DA2A2E0ACA38091C90724
S11320D0813069F50F2EF3EFAF2EF7E0BF2EF02D10
S11320E000E010E0BF8DCB2ED12CC601002E02C023
S11320F0959587950A94E2F780FF11C023E333E3B3
S11321004BEC51E4F50160817181828193810E94DD
S1132110EB3ED5016D937D938D939C9313970F5F45
S11321201F4FB4E0AB0EB11C03301105F1F6EE8D78
S1132130E33041F48091CC07813021F4FF8DF430F9
S113214009F0BAC68CE0EAEAF7E0DE0111960190E4
S11321500D928A95E1F7F0FE11C08091CD0787308A
S113216008F0ACC690918D07891741F0BE016F5FEE
S11321707F4F0E943B27882309F4A2C65090C607CC
S113218022E0521629F038E0531609F4A2C00DC11A
S11321908F8D882309F496C6C10180759927892BF0
S11321A009F492C66091E6077091E7078091E80709
S11321B09091E9070E94B93F0E94213D673008F0E1
S11321C085C68091E107843129F0823009F080C608
S11321D027FC80C69FEA2922662319F061506FA369
S11321E003C0A091CD07AFA3BE01635F7F4F8FA152
S11321F00E943B27882309F46FC6B091E107B8A772
S1132200C090C207D090C307E090C407F090C50700
S11322105E01EDE0AE0EB11C0F2EF3EF8F2EF7E052
S11322209F2EF02D0F2EFEE96F2EF7E07F2EF02D5E
S113223000E010E0FF8D4F2E512CC201002E02C091
S1132240959587950A94E2F780FF33C028A5243139
S113225031F5D30158962D913D914D915C915B9749
S11322606D917D918D919C910E94D33BF4012081CD
S11322703181428153810E94D33BD5016D937D937B
S11322808D939C9313970230A1F4A70196010E94A9
S1132290D33BF50160837183828393830AC0F40185
S11322A080819181A281B381F50180839183A2838E
S11322B0B3830F5F1F4FF4E0AF0EB11C24E0820E16
S11322C0911C34E0630E711C0330110509F0B5CF85
S11322D024C68F8D882309F401C60F2EFEE9CF2E64
S11322E0F7E0DF2EF02DDE0111965D010F2EF3EFE6
S11322F0EF2EF7E0FF2EF02D00E010E0882E912C59
S1132300C401002E02C0959587950A94E2F780FFD8
S113231032C0F5012081318142815381D6016D9112
S11323207D918D919C910E94D33BF7012081318155
S1132330428153810E94D33BD7016D937D938D934A
S11323409C931397023009F5000F111F000F111F02
S11323500A53184F2091C2073091C3074091C40714
S11323605091C5070E94D33BF80165A776A787A7BC
S113237090AB1FA2D2C5F601808D918DA28DB38D35
S1132380F70180839183A283B3830F5F1F4FF4E02F
S1132390CF0ED11C24E0A20EB11C34E0E30EF11CDC
S11323A00330110509F0ACCFB7C58E8D833009F425
S11323B087C09F8D992309F483C04090CA070F2ECC
S11323C0FEE9CF2EF7E0DF2EF02D0F2EF3EFEF2EE8
S11323D0F7E0FF2EF02DDE0111965D0100E010E024
S11323E0892E912CC401002E02C0959587950A94DC
S11323F0E2F780FD0BC0F60180819181A281B38157
S1132400F70180839183A283B3834BC0F7E05F1607
S113241009F447C0411034C0D60158962D913D911E
S11324204D915C915B97F50160817181828193810B
S11324300E94D43BD7012D913D914D915C910E9416
S1132440D43BF7016083718382839383023049F51F
S1132450000F111F000F111F0A53184F2091C207BC
S11324603091C3074091C4075091C5070E94D43BE3
S1132470D8019D966D937D938D939C93D09720C0A6
S1132480F6012081318142815381D7016D917D9183
S11324908D919C910E94D43BF70160837183828368
S11324A093830F5F1F4FF4E0CF0ED11C24E0E20EA4
S11324B0F11C34E0A30EB11C0330110509F092CFD6
S11324C085E05816A1F097E05916F9F0A3E05A12E6
S11324D021C0BF8DB11101C01E8EBE01635F7F4F4D
S11324E086E00E943B27882309F4FAC413C0EF8DC9
S11324F0E11101C01E8EBE01635F7F4F87E00E9421
S11325003B27882309F4EEC405C08091C7078230B5
S113251008F0EAC41091C707183051F4FF8DFF2367
S113252009F48EC21FA22E8D213009F0DFC491C29E
S11325301FA23E8D323009F084C2111105C08F8D67
S1132540882309F4F6C485C220E030E0A901609133
S1132550D1077091D2078091D3079091D4070E943C
S1132560AD3C882309F4C4C4143028F4123060F458
S1132570113029F066C2183008F420C262C29F8D5F
S1132580992309F4D6C465C2AF8DAA2309F4B2C451
S1132590FCA1EF2FF0E0F9A7E8A73DA1232F30E03D
S11325A03BA72AA781E090E09C010DA002C0220F66
S11325B0331F0A94E2F70CA002C0880F991F0A94F3
S11325C0E2F78901082B192B8A2F90E080239123AD
S11325D0892B09F491C4CF01880F991F880F991F83
S11325E0FC01EA53F84FDC01A957B84F57962D91D7
S11325F03D914D915C915A9765A576A587A590A9C3
S11326000E94D33B6B017C018AA59BA5880F991F6F
S1132610880F991FFC01EA53F84FDC01A957B84F02
S113262057962D913D914D915C915A9765A576A54C
S113263087A590A90E94D33B4B015C0127FE10C1E2
S1132640E89427F82091F3073091F4074091F507B7
S11326505091F60760919E0770919F078091A007A3
S11326609091A1070E94AD3C81115DC42091F707B0
S11326703091F8074091F9075091FA076091A20749
S11326807091A3078091A4079091A5070E94AD3C87
S1132690811149C42091FB073091FC074091FD074B
S11326A05091FE076091A6077091A7078091A80733
S11326B09091A9070E94AD3C811135C481E23FC4C9
S11326C00AEE17E023E333E34BEC51E4D8016D91B8
S11326D07D918D919C910E94EB3EF8016083718302
S11326E0828393834090EA075090EB076090EC0755
S11326F07090ED0720E030E040E850E4C301B201FF
S11327000E94EB3E9B01AC01C301B2010E94EB3E6F
S11327102B013C01A7019601C701B6010E94EB3EC3
S11327209B01AC01C301B2010E94D33B2B013C01CC
S1132730A5019401C501B4010E94EB3E9B01AC01CB
S1132740C301B2010E94D33B2B013C0120E030E0E5
S1132750A9010E94AD3C88230CF4D0C3C301B2018B
S11327600E94783F2B013C01A5019401C701B601E9
S11327700E94262F9B01AC01C301B20190580E9414
S1132780B43C2B013C018091C707833021F477FAD4
S1132790709477F870948091EA079091EB07A09178
S11327A0EC07B091ED078F8F98A3A9A3BAA320E0FB
S11327B030E0A901BC01CD010E94AD3C88238CF41A
S11327C077FA709477F870948F8D98A1A9A1BAA123
S11327D0B0588093EA079093EB07A093EC07B0936B
S11327E0ED0708A519A5000F111F000F111F0653AF
S11327F0184FA3019201C501B4010E94EB3E9B0155
S1132800AC01C701B6010E94D33B20E030E040E0B8
S11328105FE30E94EB3ED8011B966D937D938D93ED
S11328209C931E970AA51BA5000F111F000F111FD3
S11328300653184FA3019201C701B6010E94EB3E53
S1132840A50194010E94D43B20E030E040E05FE326
S11328500E94EB3EF8016387748785879687F9C0E9
S1132860FBA14F2E512C04211521012B09F448C33F
S113287021EF22228091C907813049F50F2EF5ED11
S11328806F2EF7E07F2EF02D00E010E0C201002E45
S113289002C0959587950A94E2F780FF10C023E360
S11328A033E34BEC51E4D3016D917D918D919C9177
S11328B00E94EB3EF30160837183828393830F5FF5
S11328C01F4FF4E06F0E711C03301105F9F60AA5D1
S11328D01BA5000F111F000F111F0653184FD8011D
S11328E01B962D913D914D915C911E97C501B401AC
S11328F00E94D33B2B013C0188A599A5880F991F01
S1132900880F991FFC01E653F84F5F012385348536
S113291045855685C701B6010E94D33BA3019201A8
S11329200E94262F6B017C01D8011B962D913D91AD
S11329304D915C911E97F501638574858585968517
S11329400E94262F4B015C016093EA077093EB070A
S11329508093EC079093ED079B01AC01C701B6018E
S11329600E94D33B6B017C01E894F7F82AE037ED31
S113297043EA5BE3C701B6010E94B03E18160CF0AF
S113298068C020E030E040E05FE3C701B6010E9488
S1132990B03E18160CF4B6C22FE632E143E85AE30F
S11329A0C501B4010E94EB3E9B01AC01C701B60115
S11329B00E94B03E18160CF4A7C24BC0FF8DFF2333
S11329C009F4A4C22091F3073091F4074091F5076C
S11329D05091F60760919E0770919F078091A00720
S11329E09091A1070E94AD3C811133C02091F7075B
S11329F03091F8074091F9075091FA076091A207C6
S1132A007091A3078091A4079091A5070E94AD3C03
S1132A1081111FC02091FB073091FC074091FD07F5
S1132A205091FE076091A6077091A7078091A807AF
S1132A309091A9070E94AD3C81110BC081E27FC235
S1132A401FA22E8D211105C03EED23223CEF33221F
S1132A5004C08EED282280EE3822232809F058C2C3
S1132A608091E2079091E307A091E407B091E50714
S1132A7080939A0790939B07A0939C07B0939D071C
S1132A808091C807809388078091D1079091D207DD
S1132A90A091D307B091D40780939507909396079C
S1132AA0A0939707B0939807C090EE07D090EF07D4
S1132AB0E090F007F090F107A7019601609191076B
S1132AC07091920780919307909194070E94AD3C76
S1132AD08823C1F080919007882321F0B701A601D3
S1132AE00E94C5178091EE079091EF07A091F0071F
S1132AF0B091F1078093910790939207A093930765
S1132B00B09394078091F207809399078091D0073E
S1132B1090919007981771F0409191075091920706
S1132B2060919307709194070E94C5178091D00714
S1132B30809390078091CF0790918F07981731F079
S1132B400E94EB178091CF0780938F078091C6076F
S1132B50813051F46091E6077091E7078091E807AE
S1132B609091E9070E94B10B8091CB0780938B076A
S1132B708091C907809389079E8D9330F9F48091E1
S1132B80CC0780938C07813089F48091FB07909166
S1132B90FC07A091FD07B091FE078093C2079093B4
S1132BA0C307A093C407B093C50708C01092C20717
S1132BB01092C3071092C4071092C5078091CD07E5
S1132BC090918D07981759F080938D078CE0FE0142
S1132BD03196AAEAB7E001900D928A95E1F78091C7
S1132BE0CA0780938A078091C60790E0FC01329758
S1132BF0E830F10508F055C0E553FF4F0C94FA3F57
S1132C00BE01635F7F4F8FA10E94F92580918D07DC
S1132C10AFA18A1346C08CE0FE013D96AAEAB7E054
S1132C2001900D928A95E1F73CC0BE8DBB2349F01B
S1132C3020E040E050E060E87FEB83EF97E00E9403
S1132C405F0820E040E050E060E87FEBCE010D96A5
S1132C500E945F088CE0FE013D96AEE9B7E001906A
S1132C600D928A95E1F71DC06EE977E086E00E9437
S1132C70F92517C06EE977E087E00E94F92511C0B5
S1132C808CE0E3EFF7E0A6EBB7E001900D928A95B4
S1132C90E1F707C08CE0E6EBF7E0DF011D928A95CF
S1132CA0E9F78091C70780938707883009F4BEC08D
S1132CB0BE8DB23009F0BAC090E08830910508F0BA
S1132CC0ACC0FC01ED52FF4F0C94FA3F20E040E011
S1132CD050E060E87FEB83EF97E00E945F089DC0BF
S1132CE040919507509196076091970770919807C6
S1132CF02091880783EF97E00E945F088EC0C09000
S1132D009507D0909607E0909707F0909807009168
S1132D10EA071091EB072091EC073091ED0781E071
S1132D208F93EEA1EF93FDA1FF938CA0A090880751
S1132D3045ED57E063EF77E08EE997E00E94950850
S1132D400F900F900F9069C0C0909507D090960790
S1132D50E0909707F09098070091EA071091EB072D
S1132D602091EC073091ED071F928EA18F939DA1C6
S1132D709F938CA0A090880745ED57E063EF77E020
S1132D808EE997E00E9495080F900F900F9045C030
S1132D904091950750919607609197077091980715
S1132DA0E12C00E02091880783EF97E00E942A0C31
S1132DB034C04091950750919607609197077091A0
S1132DC09807EE24E39400E02091880783EF97E0CE
S1132DD00E942A0C22C04091950750919607609159
S1132DE0970770919807E12C01E02091880783EF01
S1132DF097E00E942A0C11C04091950750919607C4
S1132E006091970770919807EE24E39401E0209174
S1132E10880783EF97E00E942A0C8CE0E3EFF7E049
S1132E20AEE9B7E001900D928A95E1F78091CE0763
S1132E3080938E07882309F46DC00E94111B81E0E2
S1132E40809369070E94E41880918E07823021F4F0
S1132E500E94B20C80E073C010928E0780E06FC0B5
S1132E6081E06DC082E06BC084E169C088E167C025
S1132E7084E165C084E163C084E161C088E15FC02E
S1132E8084E15DC088E15BC084E159C087E157C03B
S1132E9085E155C087E153C084E151C085E14FC04D
S1132EA084E14DC089E14BC084E049C08BE147C057
S1132EB086E145C08CE143C085E241C08DE13FC05D
S1132EC087E03DC08AE13BC08CE139C08DE137C069
S1132ED084E135C084E133C087E031C08AE12FC08A
S1132EE087E02DC087E02BC08EE129C08FE127C089
S1132EF086E125C08AE123C080E221C082E21FC0AE
S1132F0083E21DC081E21BC081E219C08AE117C0BF
S1132F1084E215C080E013C01FA21091C7071830C7
S1132F2009F007CB00CB8091C907813009F0DACBD7
S1132F30C7CBAEED2A22ACEF3A221E8E8ECDAB96D5
S1132F400FB6F894DEBF0FBECDBFDF91CF911F91B6
S1132F500F91FF90EF90DF90CF90BF90AF909F9034
S1132F608F907F906F905F904F903F902F90089537
S1132F70479808953F9A0E94B8170895811103C095
S1132F800E94B8170895479A0895CF92DF92EF925E
S1132F90FF92CF93C82F6A017B019091680792300A
S1132FA039F00E94111BB701A6018C2F0E94BE1795
S1132FB0CF91FF90EF90DF90CF90089546980895B9
S1132FC03E9A0E94DE170895823011F4469A0895BD
S1132FD00E94DE170895CF93C82F9091680792300E
S1132FE029F00E94111B8C2F0E94E417CF910895A1
S1132FF09091020180910301891710F0891B0895B3
S11330008058891B0895E0ECF0E080818260808321
S11330101092C50083E18093C400E1ECF0E080816C
S113302080618083808188608083808180688083E0
S113303008953091010121E0230F203831F404C0B8
S1133040908194FF04C0089520E0EAE6F7E09091AF
S113305000019217A9F3E32FF0E0E150F84F8083C9
S113306020930101E1ECF0E0808180628083089587
S11330701F920F920FB60F9211248F939F93EF9389
S1133080FF9380910001E82FF0E0E150F84F908128
S11330909093C6008F5F803809F480E0809300012C
S11330A090910101891305C0E1ECF0E080818F7DEE
S11330B08083FF91EF919F918F910F900FBE0F909E
S11330C01F9018959091020180910301891761F076
S11330D0E92FF0E0E158F74F80819F5F903809F4C1
S11330E090E09093020108958FEF08951F920F923C
S11330F00FB60F9211242F933F934F935F936F93C7
S11331007F938F939F93AF93BF93EF93FF9380919C
S1133110C6008F3359F028F4883161F18132C1F04F
S11331202CC08034F1F08E3751F027C08FB7F8945B
S1133130EAE6F7E09081916090838FBF2FC08FB74C
S1133140F894EAE6F7E09081926090838FBF26C0FE
S11331508FB7F894EAE6F7E09081986090838FBF88
S11331601DC08FB7F894EAE6F7E0908190629083EF
S11331708FBF14C00E94B20C11C0E091030191E012
S11331809E0F903809F490E020910201921731F0DB
S1133190F0E0E158F74F808390930301FF91EF91A2
S11331A0BF91AF919F918F917F916F915F914F915B
S11331B03F912F910F900FBE0F901F901895809103
S11331C003018093020108952F923F924F925F92E0
S11331D06F927F928F929F92AF92BF92CF92DF9223
S11331E0EF92FF920F931F93CF93DF930F2EFBE683
S11331F0EF2EF7E0FF2EF02D0F2EF8E68F2EF7E0DE
S11332009F2EF02D44244394CAE6D7E009E617E044
S11332100F2EF0E9AF2EF7E0BF2EF02D0F2EFFE8B2
S1133220CF2EF7E0DF2EF02D0F2EF1E96F2EF7E011
S11332307F2EF02D6894222424F86894332431F8E6
S1133240F7015080552069F1F401408251FE04C019
S11332508FEF0E94D33411C052FE04C08EEF0E943F
S1133260D3340BC053FE04C08DEF0E94D33405C089
S113327054FE03C08CEF0E94D33450FE0CC0842D46
S11332800E9400358FB7F89498819F7E98838FBFF2
S1133290888184FFFDCF8FB7F894F7019081108265
S11332A08FBF5880552009F4B7C054FE04C081E094
S11332B080936707CDC050FE08C00E94A4388FB722
S11332C0F89498819E7F98838FBF852D887609F422
S11332D040C0F4018081882371F0982F9C7799F184
S11332E0883009F0B2C00E945E1EF8014082F401E9
S11332F08081811105C0F801308256FC08C00BC0E2
S113330056FE09C0883019F480E4F4018083F80182
S113331080818860808353FE04C0F401808185FF2E
S1133320208255FE10C086E00E940035F80180819D
S113333081FF03C0F52DF4605F2E8460F801808363
S113334080E2F40180838FB7F89498819779988309
S11333508FBF51FE44C0852D8876D9F5F401808154
S1133360882331F08075A9F1F801808181FF31C093
S1133370F801808182FF19C0F5018081882359F00A
S1133380F30140815181628173810E94BE1780EAFA
S11333909FE00E94D82EF6018081882331F00E949C
S11333A0E41788EE93E00E94D82E0E947A2A892B93
S11333B061F0F801808183FD08C088E0F401808316
S11333C00E94801E0E942D1B02C0F4011082F8018D
S11333D010828FB7F89498819D7F98838FBF52FE97
S11333E01BC0F4018081807369F0F801808182FF41
S11333F004C00E94B8170E94DE17F8018081826021
S1133400808304C0F8011082F40110828FB7F8940D
S113341098819B7F98838FBFF40180818C7711F012
S11334200E94801EF4018081803251F4F801808171
S113343081FF06C00E94F239811102C0F40120828A
S1133440F80180818111FCCE03C0F401808158CF42
S1133450DF91CF911F910F91FF90EF90DF90CF906C
S1133460BF90AF909F908F907F906F905F904F90A0
S11334703F902F900895DF92EF92FF920F931F9346
S1133480CF93DF93DD24D394C7E6D7E006E011E0C1
S11334900F2EF8E6EF2EF7E0FF2EF02D7EC08A30D7
S11334A019F08D3009F045C083B18E700E9419184F
S11334B08CE992E00E94C73293B19E708D2D09F47D
S11334C080E00E94191889E992E00E94C732E091D5
S11334D00501F0E0EA5FFE4F10820E94E418888143
S11334E0811122C0F8018081811103C00E946234DD
S11334F01BC0843231F4C8010E94153A0E94623420
S113350013C0F7018081813021F489E00E94623484
S11335100BC0803821F48DE00E94623405C0C801DC
S11335200E94EE0C0E946234109204011092050174
S113353034C090910401992329F0893271F51092D5
S113354004012BC0813248F18F3239F1883219F4E9
S1133550D092040122C0E0910501EF3440F08BE0E9
S11335600E946234109204011092050116C09FE972
S1133570980F9A3150F491E09E0F90930501F0E07A
S1133580EA5FFE4F8052808308C091E09E0F9093C3
S11335900501F0E0EA5FFE4F80830E9462188F3FCE
S11335A009F07DCFDF91CF911F910F91FF90EF90A4
S11335B0DF9008958FB7F894EAE6F7E0908192607F
S11335C090838FBF0895CF93DF930E943735809106
S11335D06807813021F482E00E94003512C00E9405
S11335E0F239882341F0EAE6F7E080818062808343
S11335F00E94E41802C01092680786E091E00E94DD
S1133600F439C7E6D7E00E943B1A0E94DA1A0E94F6
S1133610E4180E942D0588818823A9F3DF91CF91B6
S113362008950F931F93CF93DF930E94DA1AC7E68E
S1133630D7E008E617E00E94E4188881811108C0E9
S11336400E947A2A892BB9F7F8018081883099F38E
S1133650DF91CF911F910F91089580913C0982FFD2
S113366002C0289A01C02898809168078C7899F143
S11336708091860180939A018091870180939901BA
S113368080912F0990E00297AA2797FDA095BA2F61
S1133690AC01BD01440F551F661F771F440F551F12
S11336A0661F771F440F551F661F771F840F951FD2
S11336B0A61FB71FB595A79597958795B595A79517
S11336C097958795819580939801EFE6F0E0808146
S11336D08260808344980895EFE6F0E080818D7FD6
S11336E08083E1E8F0E08081887F816080831092AC
S11336F08501809132098F3F21F490916B079923C2
S113370049F090916807943039F090E00E94D82EE7
S113371081E003C080E001C080E090913C0992FF09
S113372002C091E08927882311F0289A01C02898C3
S1133730449A08951F920F920FB60F9211242F935B
S11337403F934F935F936F937F938F939F93AF9325
S1133750BF93CF93DF93EF93FF9380918501811102
S1133760ECC18BB190919A01987A8775892B8BB9AA
S11337708BB18B7A90919901892B8BB980919801A7
S113378086BD82E085BD81E0809385017894809137
S1133790AC019091AD01892B09F0A9C080918A01F7
S11337A090918901981709F497C080918A0190E05B
S11337B0FC01EE0FFF1F8E0F9F1FFC01EE0FFF1F7A
S11337C0E255FE4FF093AD01E093AC018381948107
S11337D09093890080938800808191819093A801BF
S11337E08093A701A2818091A9018A1771F1A09306
S11337F0A90181E1A89FD0011124AE52BE4FB0931C
S1133800AB01A093AA011D968D919D910D90BC9141
S1133810A02DB695A7959795879580938B01909346
S11338208C01A0938D01B0938E0180938F019093AE
S11338309001A0939101B09392018093930190938E
S11338409401A0939501B0939601C091AA01D091DF
S1133850AB01909186018881892780939A0189819F
S11338609A81AB81BC81058004C0B695A7959795D4
S113387087950A94D2F780939B0190939C01A0931F
S11338809D01B0939E018D819E81AF81B885058095
S113389004C0B695A795979587950A94D2F7809317
S11338A09F019093A001A093A101B093A2018985E7
S11338B09A85AB85BC85058004C0B695A795979578
S11338C087950A94D2F78093A3019093A401A093BF
S11338D0A501B093A6010BC00E946C1B8FB7F8948E
S11338E0EAE6F7E09081946090838FBF26C10E943E
S11338F0493410929901EBE8F1E040919B01509119
S11339009C0160919D0170919E0180819181A281B1
S1133910B381840F951FA61FB71F80839183A28351
S1133920B383E091AA01F091AB0145855685678583
S11339307089481759076A077B0788F520E42093A4
S113394099014585568567857089841B950BA60B5F
S1133950B70B80938B0190938C01A0938D01B0934E
S11339608E018081882374F4CCE6D7E08881998124
S1133970AA81BB810197A109B10988839983AA838C
S1133980BB830DC0CCE6D7E088819981AA81BB8135
S11339900196A11DB11D88839983AA83BB83CFE8B7
S11339A0D1E040919F015091A0016091A1017091DB
S11339B0A20188819981AA81BB81840F951FA61FCA
S11339C0B71F88839983AA83BB83458556856785FA
S11339D07089481759076A077B0798F5C9E9D1E048
S11339E02881206128834585568567857089841BD5
S11339F0950BA60BB70B80938F0190939001A09326
S1133A009101B0939201808185FF0EC0C0E7D7E099
S1133A1088819981AA81BB810197A109B109888311
S1133A209983AA83BB830DC0C0E7D7E088819981BD
S1133A30AA81BB810196A11DB11D88839983AA83A4
S1133A40BB83C3E9D1E04091A3015091A4016091EB
S1133A50A5017091A60188819981AA81BB81840FF7
S1133A60951FA61FB71F88839983AA83BB834585A7
S1133A70568567857089481759076A077B0798F543
S1133A80C9E9D1E028812460288345855685678566
S1133A907089841B950BA60BB70B809393019093AD
S1133AA09401A0939501B0939601808183FF0EC089
S1133AB0E4E7F7E080819181A281B3810197A109B4
S1133AC0B10980839183A283B3830DC0E4E7F7E057
S1133AD080819181A281B3810196A11DB11D808352
S1133AE09183A283B38380916807843039F4E9E930
S1133AF0F1E090917807808189238083E7EAF1E0FF
S1133B0080819181019791838083892B69F410923C
S1133B10AD011092AC0180918A018F5F80938A017C
S1133B20863011F410928A01E9E9F1E0909187015D
S1133B3080818927808310928501FF91EF91DF9125
S1133B40CF91BF91AF919F918F917F916F915F9131
S1133B504F913F912F910F900FBE0F901F9018958A
S1133B601F920F920FB60F9211248F939F938BB1D4
S1133B709091870194758B7A892B8BB915BC9F9191
S1133B808F910F900FBE0F901F901895CF92DF92D8
S1133B90EF92FF920F931F93CF93DF9310928701BD
S1133BA010928601C0E0D0E00F2EF0E3EF2EF9E092
S1133BB0FF2EF02D01E319E0CC2EDC2EF70140811D
S1133BC050E00C2E02C0559547950A94E2F740FF49
S1133BD008C08C2F0E94072990918701892B80931C
S1133BE08701F801208130E002C035952795DA94E9
S1133BF0E2F720FF08C08C2D0E94112990918601C4
S1133C00892B809386012196C330D105A9F6DF91D3
S1133C10CF911F910F91FF90EF90DF90CF90089577
S1133C200E946C1B8BE2E6E5F1E0DF011D928A95B0
S1133C30E9F783E2EBE8F1E0DF011D928A95E9F709
S1133C40109284011092830110928A0110928901CA
S1133C5081E080938801109285010E94C61D8BB17A
S1133C608B7A90918701892B8BB98BB18775909151
S1133C708601892B8BB908958AB184658AB9209A03
S1133C808AB1886A8AB9E1E8F0E080818F7E808316
S1133C90808188608083E0E8F0E080818C7F80838D
S1133CA080818F708083EEE6F0E08081887F80835E
S1133CB014BC15BC8081816080830895CF93DF9309
S1133CC0C0918301D09184012097B9F081E0809361
S1133CD0570160916D0170916E0180916F01909117
S1133CE070019B01AC010E94EB3E698B7A8B8B8B3C
S1133CF09C8B1092840110928301DF91CF910895DF
S1133D002F923F924F925F926F927F928F929F92E7
S1133D10AF92BF92CF92DF92EF92FF920F931F93D5
S1133D20CF93DF93CDB7DEB7E6970FB6F894DEBF37
S1133D300FBECDBF80916807807709F46EC620E07E
S1133D4030E0A90160916D0170916E0180916F0165
S1133D50909170010E94AD3C81115FC664C6809150
S1133D60830190918401892B09F06CC20E947A2A04
S1133D708C019093840180938301009709F453C6C6
S1133D80A7E5B1E08C91882311F01C92DCC0E6E534
S1133D90F1E080818F5F853011F0808303C0A6E558
S1133DA0B1E01C92A6E5B1E0EC91B1E1EB9FF0012A
S1133DB01124EE52FE4FF0938201E0938101D80169
S1133DC08C91808311964D915D916D917C911497A6
S1133DD0DB01CA01880F991FAA1FBB1F880F991FF7
S1133DE0AA1FBB1F880F991FAA1FBB1F8183928321
S1133DF0A383B483D80115964D915D916D917C9107
S1133E001897DB01CA01880F991FAA1FBB1F880FCF
S1133E10991FAA1FBB1F880F991FAA1FBB1F858349
S1133E209683A783B087D80119964D915D916D91C2
S1133E307C911C97DB01CA01880F991FAA1FBB1F25
S1133E40880F991FAA1FBB1F880F991FAA1FBB1F8A
S1133E5081879287A387B487D8011D964D915D9180
S1133E606D917C915097440F551F661F771F440F27
S1133E70551F661F771F440F551F661F771F458701
S1133E8056876787708B1D966D917D918D919C915E
S1133E9050970E944D3DE8E5F1E060837183828391
S1133EA09383D80195962D913D914D915C9198976E
S1133EB00E94B43C9B01AC01ECE5F1E060837183AA
S1133EC08283938360E070E080EA9FE30E94B43CC5
S1133ED06093600170936101809362019093630128
S1133EE010926401109265011092660110926701AC
S1133EF0A8E6B7E08C918077B9F0E5E7F1E060815E
S1133F00718182819381ADE6B1E06D937D938D9350
S1133F109C9313979B01AC010E94EB3EF801618BCB
S1133F20728B838B948B0FC0D80151966D917D91C8
S1133F308D919C9154970E94783FEDE6F1E0608367
S1133F40718382839383A9E6B1E01D921D921D9231
S1133F501C9213970091830110918401F80181A0B0
S1133F6092A0A3A0B4A0A501940160E070E080E059
S1133F709FE30E94B43C6B017C01A8E6B7E08C91FE
S1133F80807709F457C082E0E8E6F1E08083D80145
S1133F9095964D905D906D907C90989751962D914B
S1133FA03D914D915C91549729833A834B835C8373
S1133FB0A701960169817A818B819C810E94EB3EE5
S1133FC09B01AC01C301B2010E94D33B6B017C0194
S1133FD020E030E0A9010E94AD3C8823ECF4A50167
S1133FE09401C501B4010E94D43B9B01AC01C301FF
S1133FF0B2010E94EB3E9B01AC0169817A818B8105
S11340009C810E94D33B0E94783FE5E7F1E0608306
S113401071838283938316C1A9E6B1E0CD92DD92C8
S1134020ED92FC921397E5E7F1E01082118212827F
S1134030138208C1A8E6B1E01C92F80185A196A1FB
S1134040A7A1B0A5E9E7F1E080839183A283B383BC
S11340500E948A2A2B013C01A5E7B1E06D937D9370
S11340608D939C9313979B01AC010E94EB3E698353
S11340707A838B839C830091830110918401D801FE
S113408095962D913D914D915C9198972D833E830A
S11340904F8358879B01AC0151966D917D918D9111
S11340A09C9154970E94D33BA70196010E94EB3E3A
S11340B09B01AC016D817E818F8198850E94D43BE8
S11340C020E030E040E05FE30E94EB3E4B015C0106
S11340D020E030E0A9010E94B03E18160CF0A5C003
S11340E0A50194016D817E818F8198850E94B03EE7
S11340F018160CF089C029813A814B815C81F80142
S1134100658D768D878D90A10E94D33BA701960182
S11341100E94EB3E9B01AC01ADE7B1E06D937D9352
S11341208D939C931397C501B4010E94B03E181659
S11341300CF040C0F801658D768D878D90A10E94AA
S1134140783FA1E7B1E06D937D938D939C93139792
S1134150F8014188528863887488858C968CA78C72
S1134160B0A0A5019401C301B2010E94AD3C81112C
S113417005C081E0A8E6B1E08C9364C0A30192017C
S1134180C501B4010E94D33BA70196010E94EB3EF6
S11341909B01AC01E9E7F1E0608171818281938147
S11341A00E94D33BA9E7B1E06D937D938D939C93DB
S11341B0139748C0E9E7F1E080829182A282B3823A
S11341C0ADE7B1E08D929D92AD92BC921397F80148
S11341D061A172A183A194A19B01AC010E94D43B73
S11341E0A50194010E94EB3E29813A814B815C81B7
S11341F00E94D43B0E94783FA1E7B1E06D937D9388
S11342008D939C9313971EC082E0E8E6F1E08083CF
S1134210EDE6F1E080819181A281B381E1E7F1E0F3
S113422080839183A283B3830DC0A9E7B1E01D927B
S11342301D921D921C921397E1E7F1E04082518296
S1134240628273828091890190E09C01220F331F66
S1134250820F931F880F991F9C0122553E4F3CA744
S11342602BA7A6E5B1E08C91F9018283209183010B
S1134270309184013E8B2D8BD9019596BC91BDA7BD
S1134280F901F6A1FEA7D9019796BC91BFA7F90140
S1134290F0A5F8AB20916001309161014091620179
S11342A0509163016DA57EA58B2F9F2F0E94D33B58
S11342B06BA37CA38DA39EA320E030E0A9010E9400
S11342C0AD3C882324F41BA21CA21DA21EA2A9E7B4
S11342D0B1E0BC91BF8BE0917A01E88FF0917B0152
S11342E0F98F20917C012A8FA1E7B1E0BC91BB8FAB
S11342F0E0917201EC8FF0917301FD8F20917401B4
S11343002E8FADE7B1E0BC91BF8FE0917E01E8A3B1
S1134310F0917F01F9A3209180012AA3A9E6B1E0DD
S1134320BC91B98BE0916A01EA8BF0916B01FB8B34
S113433020916C012C8BA5E7B1E08D919D910D909E
S1134340BC91A02D89AB9AABABABBCABEDE6F1E075
S1134350F081FD8720916E012E8730916F013F8798
S113436040917001488BA8E6B1E0BC91B987EDA5F6
S1134370FEA5FFA30FA518A90F2EFEE32F2EF02DE7
S11343800F2EF3EC6F2EF02D0F2EFEEA7F2EF02D64
S11343900F2EF9E33F2EF02DC12CD12C76010F2ED8
S11343A0FEE34F2EF02D0F2EF3EC5F2EF02D2EEAB0
S11343B0298339E33D83EDABFEAB4985442321F0EA
S11343C0413009F48AC0C9C0AD89BE8991962D9146
S11343D03D914D915C919497622D762D872D932D6F
S11343E00E94EB3E4B015C0120E030E040E05FE3E3
S11343F00E94EB3E2D853E854F8558890E94D43B13
S1134400222D362D472D532D0E94EB3E9B01AC01EE
S11344106DA97EA9802F912F0E94D33B6DAB7EABFB
S1134420082F192F2F89388D498D5A8D912F0E946D
S1134430AD3C88230CF044C02F89388D498D5A8DAA
S11344406DA57EA58FA598A90E94D33B9B01AC01C5
S11344500E94D43B4B015C012D853E854F855889D4
S11344606B8D7C8D8D8D9E8D0E94D43B9B01AC0108
S1134470C501B4010E94B43C262E672E782E392E35
S11344802F8D38A149A15AA16F89788D898D9A8D74
S11344900E94AD3C882319F0B1E0B98702C0E2E084
S11344A0E987FB8DFD872C8D2E873D8D3F874E8DB3
S11344B0488B5F895DAB888D8EAB098D1A8DD1C019
S11344C02D853E854F855889C501B4010E94D43B92
S11344D06D877E878F87988BC4C02B8D3C8D4D8DC7
S11344E05E8D622D762D872D932D0E94EB3E9B01D0
S11344F0AC016DA97EA9802F912F0E94D33BA62EDB
S1134500B72E882E992E262F372F482F592F6F8D8F
S113451078A189A19AA10E94B03E18160CF09DC002
S11345202F8D38A149A15AA16DA97EA9802F912F61
S11345300E94D33B2B8D3C8D4D8D5E8D0E94B43CEF
S1134540262E672E782E392E9F8D9DABA8A1AEAB5B
S113455009A11AA1B2E0B98784C0ED89FE8921A11D
S113456032A143A154A1622D762D872D932D0E9453
S1134570EB3E4B015C019B01AC016D857E858F8513
S113458098890E94B03E1816ECF520E030E040E037
S11345905FE3C501B4010E94EB3E9B01AC016D8554
S11345A07E858F8598890E94D33B222D362D472DF9
S11345B0532D0E94EB3E9B01AC016DA97EA9802F77
S11345C0912F0E94D33B6FA378A789A79AA7298923
S11345D03A894B895C890E94B03E18169CF4A50167
S11345E094016D857E858F8598890E94D33B6D8764
S11345F07E878F87988BFFA1FDAB28A52EAB09A5DD
S11346001AA52FC029893A894B895C896DA97EA98D
S1134610802F912F0E94D33B9B01AC010E94D43B7D
S11346204B015C0129A93AA94BA95CA96D857E853A
S11346308F8598890E94D43B9B01AC01C501B401CC
S11346400E94B43C262E672E782E392E39893DAB34
S11346504A894EAB0B891C8904C0ADAABEAA082D99
S1134660192D222D362D472D532DC701B6010E9439
S1134670D43B6B017C019B01AC01642D752D8981B8
S11346809D810E94B03E18166CF4A7019601642D1A
S1134690752D89819D810E94D33B262E672E782E0D
S11346A0392E33C02BA13CA14DA15EA16DA97EA9D9
S11346B0802F912F0E94B03E18168CF08EA98FA3E4
S11346C08D859E85AF85B889EDE6F1E08083918381
S11346D0A283B383E985A8E6B1E0EC9333C02EE36B
S11346E033EC4EEA59E3642D752D89819D810E9436
S11346F0D43B462E572E89839D83A70196010E94A1
S1134700D33B262E672E782E392E29893A894B8958
S11347105C896DA97EA9802F912F0E94B03E181646
S11347200CF44BCE8EA98FA38D859E85AF85B88959
S1134730EDE6F1E080839183A283B383E985A8E663
S1134740B1E0EC93ACE5B1E02D913D914D915C91DC
S113475029873A874B875C872DA93FA1402F512F8A
S113476069857A858B859C850E94EB3E2B013C01F3
S11347700E949A3C6D837E838F839887E8E5F1E0FD
S113478060817181828193810E949A3C4B015C011A
S11347902D813E814F8158850E94D33B0E94213D4B
S11347A069837A838B839C83E981FA81ABA5BCA559
S11347B0ED93FC93309791F5A8E6B7E08C91807760
S11347C069F14D805E806F80788410926D01109243
S11347D06E0110926F011092700110926401109298
S11347E0650110926601109267014092580150923F
S11347F0590160925A0170925B0129853A854B8573
S11348005C85C301B2010E94B43CED89FE8965A3B5
S113481076A387A390A70E94032E05C10F2EF4E66A
S11348202F2EF1E03F2EF02DD1012D913D914D9190
S11348305C91C701B6010E94D43B6B017C01A301CA
S11348409201C501B4010E94D33B9B01AC01C70195
S1134850B6010E94B43C6B017C01A30192016D81FD
S11348607E818F8198850E94D33BA70196010E9487
S1134870EB3EF10160837183828393832CEF3EEBE3
S113488040E85EE4C701B6010E94EB3E0E949A3CF8
S11348900E94213D6115F9E07F078105910528F407
S11348A0ABA5BCA515961C9231C06115B2E17B077E
S11348B08105910528F421E0EBA5FCA5258310C012
S11348C06115F4E27F078105910530F422E0ABA580
S11348D0BCA515962C9304C023E0EBA5FCA5258369
S11348E0ABA5BCA515962C911597022E04C09695E0
S11348F08795779567950A94D2F7E981FA8102C082
S1134900EE0FFF1F2A95E2F7ED93FC9361157105F5
S1134910F1E08F07910538F4ABA5BCA514967C9300
S11349206E93139706C08FEF9FEFEBA5FCA59483BE
S1134930838380918801809389018F5F863019F089
S11349408093880102C0109288012DA93FA1402FB5
S1134950512FA9E6B1E06D917D918D919C910E94BA
S1134960AD3C88239CF4E0918301F09184018DA9EE
S11349709FA1A02FB12F85A396A3A7A3B0A7E8E575
S1134980F1E0408251826282738247C020E030E0CD
S1134990A9016DA97FA1802F912F0E94B03E181606
S11349A0B4F54D805E806F80788410926D01109212
S11349B06E0110926F0110927001109264011092B6
S11349C0650110926601109267014092580150925D
S11349D0590160925A0170925B0100918301109118
S11349E0840120915C0130915D0140915E01509100
S11349F05F01C301B2010E94B43CD80195966D9346
S1134A007D938D939C9398970E94032E0CC01092D3
S1134A108401109283010E94662A90918A018091F8
S1134A20880198139CC9E6960FB6F894DEBF0FBEB2
S1134A30CDBFDF91CF911F910F91FF90EF90DF9049
S1134A40CF90BF90AF909F908F907F906F905F902A
S1134A504F903F902F900895F999FECF92BD81BD5C
S1134A6081E08FBB80B50895F894F999FECF92BD8B
S1134A7081BD81E08FBB80B58627982F962359F09E
S1134A806F3F29F060BD84E08FBBF99A0AC084E1CE
S1134A908FBBF99A06C0882321F060BD84E28FBBE6
S1134AA0F99A789408958F929F92AF92BF92CF9281
S1134AB0DF92EF92FF920F931F93CF93DF936C01DA
S1134AC08B015A014115510511F1EA01912C8824F9
S1134AD08394911009C0692D772767FD7095972EEF
S1134AE0991C9924991C01C0982CF80161918F019B
S1134AF0960E7C01FFEFEF1AFF0A0E9434252197DE
S1134B00209711F0C701E5CFCA0CDB1C01C0912C22
S1134B10692DC6010E943425DF91CF911F910F9119
S1134B20FF90EF90DF90CF90BF90AF909F908F90C9
S1134B3008958F929F92AF92BF92CF92DF92EF929D
S1134B40FF920F931F93CF93DF936B015A0141158B
S1134B50510529F1082F192FEA01CB01912C882442
S1134B6083947C012FEFE21AF20A0E942C25911003
S1134B7009C0292D332727FD3095932E991C99249C
S1134B80991C01C0982C980EF80181938F012197EC
S1134B90209711F0C701E5CFCA0CDB1C01C0912C92
S1134BA0C6010E942C2541E050E0891511F040E037
S1134BB050E0CA01DF91CF911F910F91FF90EF90C8
S1134BC0DF90CF90BF90AF909F908F90089521E594
S1134BD0829FC001112440E550E09D5F0E9453254F
S1134BE0089540E550E0BC018EEA93E00E9453250D
S1134BF008952DE0829FC00111244CE050E09E5F97
S1134C000E945325089569E080E090E00E943425D5
S1134C1045E550E06FEF78E081E090E00E94532595
S1134C2008958AE080932F0989E1809332091092D4
S1134C3030091092310983E0809333098DEC9CECA8
S1134C40ACECBDE38093340990933509A093360905
S1134C50B09337098AE097EDA3EABCE3809338095F
S1134C6090933909A0933A09B0933B0910923D09F6
S1134C7080E090E0A8E4B3E480933E0990933F0978
S1134C80A0934009B093410980E090E8ABEBB4E411
S1134C908093420990934309A0934409B093450932
S1134CA084E690E0909347098093460980E090E081
S1134CB0A0EAB0E48093480990934909A0934A0973
S1134CC0B0934B0980E090E0A0E2B1E480935009F6
S1134CD090935109A0935209B093530910924C092F
S1134CE010924D0910924E0910924F0988E1809359
S1134CF03C0980E090E0A0EAB2E48093FF0890933E
S1134D000009A0930109B0930209809303099093C9
S1134D100409A0930509B093060980E090E0A8EC8B
S1134D20B2E48093070990930809A0930909B0930A
S1134D300A0940E050E068EC73E440930B09509397
S1134D400C0960930D0970930E0940930F09509359
S1134D5010096093110970931209809313099093B9
S1134D601409A0931509B093160980E098ECAFE2FA
S1134D70B9E48093170990931809A0931909B09383
S1134D801A0980931B0990931C09A0931D09B093E1
S1134D901E0980931F0990932009A0932109B093C1
S1134DA0220980E090E0A8E4B4EC80932309909376
S1134DB02409A0932509B093260980E090E0AAEF86
S1134DC0B3EC8093270990932809A0932909B09301
S1134DD02A0980E090E0A0EFB2EC80932B09909335
S1134DE02C09A0932D09B0932E090E94032608953F
S1134DF060E080E093E00E94342560E081E593E088
S1134E000E943425089560E08EEA93E00E943425E0
S1134E1008951F93CF93DF93182FEB0181E5189F1B
S1134E20B00111247D5F40E550E0CE010E94992538
S1134E30892B39F41882BE01812F0E94E72580E076
S1134E4001C081E0DF91CF911F910895CF93DF934B
S1134E50EC0140E550E06EEA73E00E949925892B4D
S1134E6031F41882CE010E94F12580E001C081E076
S1134E70DF91CF9108951F93CF93DF93182FEB0108
S1134E808DE0189FB00111247E5F4CE050E0CE010C
S1134E900E949925892B59F48CE0FE0111928A9580
S1134EA0E9F7BE01812F0E94F92580E001C081E06D
S1134EB0DF91CF911F91089580E090E00E942C250E
S1134EC0893069F445E550E061E070E08FEF98E0E7
S1134ED00E94992521E0892B19F420E001C020E0EB
S1134EE0822F0895CF92DF92EF92FF92CF93DF93B8
S1134EF0D82F6A017B0120E030E0A901C701B60187
S1134F000E94AD3C88230CF4EFC0D436A0F0ECE949
S1134F10ED0FE33020F0EA3008F0F4C0E7C0F0E031
S1134F20EE0FFF1FEE0FFF1FE150F74FC082D1823B
S1134F30E282F382D5C0C701B6010E94B93F0E9444
S1134F40213D8D2F90E08032910508F0D1C0FC0105
S1134F50E552FF4F0C94FA3F633008F4CBC06093E2
S1134F602F09BEC060933209BBC0609330090E9410
S1134F70C61DB6C0609331090E94C61DB1C0662328
S1134F8031F0ECE3F9E0808184608083A9C0ECE334
S1134F90F9E080818B7F8083A3C0662331F0ECE34A
S1134FA0F9E08081806480839BC0ECE3F9E0808138
S1134FB08F7B808395C0662331F0ECE3F9E0808138
S1134FC0806880838DC0ECE3F9E080818F778083F3
S1134FD087C06093330984C0C0923409D0923509E4
S1134FE0E0923609F09237097BC0C0923809D0921A
S1134FF03909E0923A09F0923B0972C0662331F014
S1135000ECE3F9E08081816080836AC0ECE3F9E03D
S113501080818E7F808364C0662341F080913C0947
S113502084FF6AC0806280933C095AC0ECE3F9E0D3
S113503080818F7D808354C0662331F0ECE3F9E0F6
S113504080818860808305C0ECE3F9E08081877FFC
S113505080830E94582F44C0662331F0ECE3F9E0CA
S11350608081806180833CC0ECE3F9E080818F7CA7
S1135070808336C060933D0933C0C0923E09D0920C
S11350803F09E0924009F09241092AC0C0924209C6
S1135090D0924309E0924409F092450921C0862F39
S11350A090E090934709809346091AC0C09248093A
S11350B0D0924909E0924A09F0924B0911C0C0927A
S11350C05009D0925109E0925209F092530908C054
S11350D0C0924C09D0924D09E0924E09F0924F09CA
S11350E00E94032680E056C084E054C083E052C08E
S11350F083E050C086E04EC08AE04CC083E04AC0E2
S113510083E048C0E2E9ED0FE33068F0EA30B0F341
S1135110C8E8CD0FC33098F0CA3090F3D258D330DA
S113512040F183E037C0F0E0EE0FFF1FEE0FFF1FEA
S1135130E55FF64FC082D182E282F382D1CFD0E024
S1135140CC0FDD1FCC0FDD1FC95ED64F20E030E051
S113515040E752E4C701B6010E94EB3E20E030E094
S113516040E752E40E94EB3E688379838A839B8301
S1135170B7CFED2FF0E0EE0FFF1FEE0FFF1FED5D39
S1135180F64FF7FAF094F7F8F094C082D182E282F5
S1135190F382A6CFDF91CF91FF90EF90DF90CF9075
S11351A008951F93CF93DF93CDB7DEB72C970FB637
S11351B0F894DEBF0FBECDBF0E945C2781111BC0D7
S11351C087E00E9462340E9411260E94F8260E9401
S11351D003270E9441350FC0BE016F5F7F4F812FAF
S11351E00E943B27811103C087E00E9462341F5F45
S11351F0183091F702C010E0EFCF2C960FB6F89458
S1135200DEBF0FBECDBFDF91CF911F9108958823DC
S113521021F0813021F480E1089580E4089584E050
S11352200895882321F0813021F480E2089580E8F4
S1135230089588E00895882321F0813021F484E0E2
S1135240089582E0089588E008953F924F925F9216
S11352506F927F928F929F92AF92BF92CF92DF9282
S1135260EF92FF920F931F93CF93DF9380914502A8
S1135270811101C080E277247A94780EC0914302B0
S1135280C71509F400C189E2789E80011124095BE5
S11352901D4FF8019588A688B788C08C61A172A1BA
S11352A083A194A19B01AC010E94D43BF80125A1E8
S11352B036A147A150A50E94EB3ED62EE72EF82E2C
S11352C0D92F262F372F482F592F692D7A2D8B2D23
S11352D09C2D0E94AD3C882324F4D92CEA2CFB2C71
S11352E0DC2D4D2D5E2D6F2D7D2FF801418B528BC2
S11352F0638B748B711003C06894772475F87A9467
S1135300C71529F00F2EF9E26F2EF02D4FC08091B2
S11353104602C8134FC00E945E1E4CC0679CE00149
S11353201124C95BDD4F711003C06894772475F8AC
S11353307A9480914602871102C00E945E1ECD8835
S1135340DE88EF88F88CA701960169897A898B89B0
S11353509C890E94AD3C882341F169A17AA18BA16B
S11353609CA19B01AC010E94D43B2DA13EA14FA165
S113537058A50E94EB3EF80121893289438954895A
S11353800E94D43B4B015C019B01AC01C701B601F7
S11353900E94B03E18162CF4898A9A8AAB8ABC8A79
S11353A004C0C98ADA8AEB8AFC8A8E01809143029E
S11353B07812B4CF40904302F9E24F9E8001112449
S11353C0095B1D4F77247394740C80E2781201C03A
S11353D0712C609045020F2EF9E25F2EF02D312CD6
S11353E04EC0579CE0011124C95BDD4FF801818850
S11353F09288A388B488C988DA88EB88FC88A701D6
S11354009601C501B4010E94AD3C88232CF5F80136
S113541061A172A183A194A19B01AC010E94D43B20
S1135420F80125A136A147A150A50E94EB3E9B019E
S1135430AC01C501B4010E94D43B4B015C019B014A
S1135440AC01C701B6010E94B03E18162CF4898A3B
S11354509A8AAB8ABC8A472C2D893E894F89588DFC
S113546069897A898B899C890E94AD3C811101C02C
S1135470472C7394F0E27F1201C0732C8E017610D6
S1135480B0CF40924302DF91CF911F910F91FF90D3
S1135490EF90DF90CF90BF90AF909F908F907F90D0
S11354A06F905F904F903F9008958CE1E7E2F2E0B7
S11354B0DF011D928A95E9F7109246021092450287
S11354C081E0809344021092430208958091460241
S11354D090914502981769F091E0980F903209F481
S11354E090E020914302821302C090934302909370
S11354F0460208958091460290914502981739F02A
S113550029E2829FC0011124895B9D4F089580E0A8
S113551090E00895E0914602EF5FE03209F4E0E0A4
S1135520809145028E1769F089E2E89FF001112409
S1135530E95BFD4F61897289838994890E94783F70
S1135540089560E070E0CB01089581E02091460267
S113555090914402291380E008952F923F924F9234
S11355605F926F927F928F929F92AF92BF92CF92EF
S1135570DF92EF92FF920F931F93CF93DF93CDB7F8
S1135580DEB7AD970FB6F894DEBF0FBECDBF49A30B
S11355905AA36BA37CA32DA32091450249E2249F27
S11355A090011124F901E95BFD4F1F011586168650
S11355B01786108A15A216A217A210A6108249E90E
S11355C056E766E97EE741A352A363A374A35C0193
S11355D00FEF18E0AE014F5F5F4F5C8F4B8F0F2EC4
S11355E0F7E24F2EF2E05F2EF02D7F01CE010D96F3
S11355F06C01712CBE8EAD8EED8DFE8D619171911D
S113560081919191FE8FED8F18A30F8FF801208166
S11356103181428153810E94EB3E0E94BB3EEB8D5F
S1135620FC8D6193719381939193FC8FEB8FF201C5
S113563081909190A190B1902F01681979098A09FC
S11356409B099B01AC013AF422273327A901261BAD
S1135650370B480B590BF70121833283438354835F
S1135660F10185849684A784B088281539054A05F4
S11356705B0510F4A5019401F1012587368747875E
S1135680508B0E944F3DEF8DF8A1208131814281E2
S113569053810E94B43C4B015C01F6016193719308
S11356A0819391936F0120E030E0A9010E94AD3C09
S11356B0882344F4F1016080872D0E9411298629F2
S11356C0F1018083A5019401C501B4010E94EB3E60
S11356D0F10125A136A147A150A50E94D43BF101B7
S11356E065A376A387A390A773940C5F1F4FF4E080
S11356F0EF0EF11C23E072127FCF0E94783F6B0102
S11357007C01F10165A376A387A390A7858596857F
S1135710A785B089892B8A2B8B2B09F41FC220E023
S113572030E0A90169A17AA18BA19CA10E94AD3CA2
S11357308823E4F0FDA1FF2361F029A13AA14BA144
S11357405CA1C701B6010E94B43C69A37AA38BA3F0
S11357509CA320E030E040E85FE369A17AA18BA13B
S11357609CA10E94AD3C882384F409C029E929A3A3
S113577046E74AA356E95BA38EE78CA306C019A2A9
S11357801AA290E89BA3EFE3ECA3A701960160E0C3
S113579070E080E89FE30E94B43C6AA77BA78CA7D3
S11357A09DA703E312E00F2EFBE04F2EF9E05F2EDE
S11357B0F02DAE01475E5F4F5A8F498FCE010D9693
S11357C01F8E1DA21EA21FA23C8E2B8E1E8F0D8F1C
S11357D08C01320129A03AA04BA05CA0F801C08042
S11357E0D180E280F38020E030E0A901C701B60156
S11357F00E94AD3C882309F47EC0A70196016AA5E6
S11358007BA58CA59DA50E94EB3E6B017C01F80154
S113581060837183828393839B01AC0160E070E0B9
S113582080E89FE30E94B43C4B015C01E894B7F824
S113583079A668A6F3012081318142815381C50193
S1135840B4010E94EB3E69A37AA38BA39CA3222DEF
S1135850332D442D552D0E94B03E181624F429A250
S11358603AA24BA25CA2EB8DFC8D21A032A043A0F6
S113587054A0E8A5F9A52485358546855785C50135
S1135880B4010E94EB3E862E972EA82EB92E262F09
S1135890372F482F592F622D732D842D952D0E945B
S11358A0AD3C882324F0282C392C4A2C5B2C822DE7
S11358B0932DA42DB52DEB8DFC8D81A392A3A3A3D1
S11358C0B4A3ED8DFE8D2081318142815381C701C6
S11358D0B6010E94EB3E9B01AC016F8D7DA18EA1B0
S11358E09FA10E94D33B6F8F7DA38EA39FA329A06A
S11358F03AA04BA05CA00C5F1F4F4D8D5E8D4C5F9A
S11359005F4F5E8F4D8F54E0650E711C898D9A8DAB
S11359100817190709F062CF29A23AA22B8C3C8CF4
S11359204BA25CA2EF8CFDA00EA11FA19091450299
S11359308091460298130AC0F101118A128A138ACF
S1135940148A118E128E138E148E75C024EA30E7D9
S11359504DE75FE36F8D7DA18EA19FA10E94B03EB4
S1135960181634F4F101118E128E138E148E63C046
S113597024EA30E74DE75FEB6E2D7F2D802F912FCA
S11359800E94B03E181644F0F4EAFF8F20E72DA3DE
S11359904DE74EA35FEB5FA32F8D3DA14EA15FA109
S11359A060E070E080E89FE30E94D33B20E030E0B9
S11359B040E05FE30E94EB3E0E94783F6B017C0174
S11359C020913409309135094091360950913709B5
S11359D0F10161A172A183A194A10E94EB3EA701F0
S11359E096010E94EB3E4B015C01A701960160E029
S11359F070E080E89FE30E94D33B9B01AC01C501AA
S1135A00B4010E94B43CE62EF72E082F192F20E093
S1135A1030E0A9010E94AD3C882324F4E12CF12C50
S1135A2000E010E04E2D5F2D602F712FF101418FAA
S1135A30528F638F748F29A13AA14BA15CA169A1F4
S1135A407AA18BA19CA10E94EB3E162F072FF82E62
S1135A50E92E862F902FAF2DBE2DF101858F968FC5
S1135A60A78FB0A3918C828C738C648CA0903F021E
S1135A70B0904002C0904102D09042022A2D3B2DAA
S1135A804C2D5D2D612F702F8F2D9E2D0E94AD3CCE
S1135A9088230CF455C02A2D3B2D4C2D5D2D692DEA
S1135AA0782D872D962D0E94AD3C8823ACF02A2DAD
S1135AB03B2D4C2D5D2D612F702F8F2D9E2D0E941F
S1135AC0AD3C88232CF4912E802E7F2C6E2C04C0A8
S1135AD09A2C8B2C7C2C6D2C892D982DA72DB62DD2
S1135AE0F101858B968BA78BB08F8CE0FE013D96E0
S1135AF0A3E3B2E001900D928A95E1F7812F902FF4
S1135B00AF2DBE2D80933F0290934002A09341029B
S1135B10B09342028CE0FE013196A7E2B2E001901C
S1135B200D928A95E1F780914402809345028F5F3C
S1135B30803209F480E0809344020E9425290EC03B
S1135B40292D382D472D562D612F702F8F2D9E2DE9
S1135B500E94B03E18160CF0B6CFBECFAD960FB66D
S1135B60F894DEBF0FBECDBFDF91CF911F910F918F
S1135B70FF90EF90DF90CF90BF90AF909F908F9069
S1135B807F906F905F904F903F902F9008958091F9
S1135B906C0790916D07A0916E07B0916F07809389
S1135BA0270290932802A0932902B0932A0280919D
S1135BB0700790917107A0917207B0917307809359
S1135BC02B0290932C02A0932D02B0932E0280916D
S1135BD0740790917507A0917607B0917707809329
S1135BE02F0290933002A0933102B09332020895B1
S1135BF08091450290914602891710F0891B0895FF
S1135C00805E891B08950E945E1E809146028093E7
S1135C1043020E94252908954F925F926F927F92CA
S1135C209F92AF92BF92CF92DF92EF92FF920F9327
S1135C301F93CF93DF937C018B016A01FB01808169
S1135C40F701E80FF11D40814D3239F49F012E5FB9
S1135C503F4F4181AA24A3940CC04B3229F09F01E9
S1135C602F5F3F4FA12C05C09F012E5F3F4F418105
S1135C70A12CE0E050E0B12C60E070E0CB01F1E059
S1135C80E90140534A3020F55F5F5930E8F4E111EF
S1135C90BA942B013C01440C551C661C771C440C23
S1135CA0551C661C771CDC01CB01840D951DA61DBB
S1135CB0B71D880F991FAA1FBB1FBC01CD01640F1C
S1135CC0711D811D911D09C0E11107C0B39405C068
S1135CD04E3F39F4E11107C0EF2F48812F5F3F4F4A
S1135CE0CFCF9B2C01C09B2C552309F450C00E949C
